:060000000A128A11A52F6F
:100F4A0083010A128A11A92F83160313860101123B
:100F5A008111811283120313810183160313011570
:100F6A00811401140030F0000030F100BC2F83120C
:100F7A00031386103D30F0000030F100CB2FC52F4F
:100F8A000B1DC82FC92FC52F0B11CB2F0130F00213
:100F9A000030031CF103F102FF307106031DD72F45
:100FAA00FF307006031DDA2FDB2FC52F83120313C0
:100FBA0086143D30F0000030F100EA2FE42F0B1DBB
:100FCA00E72FE82FE42F0B11EA2F0130F00200304F
:100FDA00031CF103F102FF307106031DF62FFF30E7
:100FEA007006031DF92FFA2FE42FBC2FBC2FBC2F3C
:060FFA000A128A11002812
:02400E000A2F77
:00000001FF
