:060000000A128A11A92F6B
:100F520083010A128A11AD2F831203139012101209
:100F6200901110159010101483160313860100308F
:100F7200F0000030F100BD2F831206103D30F0006A
:100F82000030F100CC2FC52F0C1CC82FC92FC52F44
:100F92000C101014CC2F0130F0020030031CF103AE
:100FA200F102FF307106031DD82FFF307006031DBA
:100FB200DB2FDC2FC52F06143D30F0000030F1008E
:100FC200EA2FE32F0C1CE62FE72FE32F0C1010144F
:100FD200EA2F0130F0020030031CF103F102FF306E
:100FE2007106031DF62FFF307006031DF92FFA2F2D
:0E0FF200E32FBD2FBD2FBD2F0A128A1100283C
:02400E000A2F77
:00000001FF
